:20C000000A1209123F4000003F90000004243C400000B0126EC03F4024C23F9026C21624B1
:20C020003F4026C23F902AC211243A402AC23A8026C20A110A11394026C23C497F4C0F5F4C
:20C040001F4F24C23D498F121A83F723B0121EC23F4000003F90000008243A400000023CDA
:20C060003F4A8F123A900000FB23304006C20A120912094C1B4902000A43223C0C4A3D4006
:20C080000600B012D6C10C591E4C08001D4C04001F4C06000C4F0E930E203E4024C23E9030
:20C0A00026C20D246E4D0E5E1E4E24C21D530C4D0D4F8E12023CB012EAC11B4902001A53AB
:20C0C0000A9BDC2B304006C2C2435600D242FF105700D242FE105600F2D0F1002200C24355
:20C0E0002100F2D006002600F2D006004100F2432A00C2432900F2D080006100F242620062
:20C10000C2436300F2400A006400D2C3610032D230412183C1430000F2D080002100F19020
:20C1200009000000062CD1530000F19009000000FA2BF2F07F00210021533041B240805ABE
:20C140002001B012C8C03C40D007B01286C1B01212C1F2E0400021003C40F401B01286C1D6
:20C16000F83F0F120E121E4200030F4E1F53824F0003DE42660000021F420003CF43000241
:20C180003E413F410013B2407D0072011C930B38B240D002600192B36001FD27A242600185
:20C1A0001C831C93F537304131400004B0121AC20C930224B01200C00C43B0123CC1B0126A
:20C1C00014C21F4C01000F9305241D53CD43FFFF1F83FB2330410E4312C30C1001280E5DCD
:20C1E0000D5D0C93F9230C4E30410F4C0E9305241F53FF4DFFFF1E83FB2330413441354153
:20C2000036413741384139413A41304132D01000FD3F03430343FF3F03431C4330413041B1
:0AC2200000000201C2C120C20002AA
:02FFDE00FFFF23
:02FFE0000CC251
:02FFE4000CC24D
:02FFE6000CC24B
:02FFEA000CC247
:02FFEC000CC245
:02FFEE0062C1EE
:02FFF0000CC241
:02FFF2000CC23F
:02FFF4000CC23D
:02FFF6000CC23B
:02FFF8000CC239
:02FFFA000CC237
:02FFFC000CC235
:02FFFE00A8C198
:00000001FF
